:1000000094C10000C3C10000C1C10000BFC1000015
:10001000BDC10000BBC10000B9C10000B7C10000F4
:10002000B5C10000B3C10000B1C10000AFC1000004
:10003000ADC10000ABC10000A9C10000A7C1000014
:10004000A5C10000A3C10000A1C100009FC1000024
:100050009DC100009BC1000099C100000C94D60A0C
:1000600095C100000C9491090C9468098FC100009F
:100070008DC100008BC1000089C1000087C1000054
:1000800085C1000083C1000081C100007FC1000064
:100090007DC100007BC1000079C1000077C1000074
:1000A00075C1000073C1000071C100006FC1000084
:1000B0006DC100006BC1000069C1000067C1000094
:1000C00065C1000063C1000061C100005FC10000A4
:1000D0005DC100005BC1000059C1000057C10000B4
:1000E00055C10000F708FA08E908ED08F3083109DE
:1000F000FE08020908090C09100916091A091E0947
:100100003109240928092C090000200023002600B9
:1001100029002C002F00320000010000030106011D
:100120000901010210202008081020401020408002
:1001300002010201080402010102040810204080AB
:100140008040201008040201800402018040201039
:100150000804020108040201010204081020408082
:100160000102040810204080000022002500280021
:100170002B002E00310034000201000005010801AF
:100180000B0105050505070508080808020202021B
:100190000A0A080804040404010101010101010123
:1001A0000303030303030303040707070C0C0C0CEE
:1001B0000C0C0C0C020202020606060606060606D7
:1001C0000B0B0B0B0B0B0B0B005EBCE2613FDD83DB
:1001D000C29C7E20A3FD1F419DC3217FFCA2401E27
:1001E0005F01E3BD3E6082DC237D9FC1421CFEA017
:1001F000E1BF5D0380DE3C62BEE0025CDF81633D07
:100200007C22C09E1D43A1FF4618FAA427799BC5F6
:1002100084DA3866E5BB5907DB856739BAE40658E6
:100220001947A5FB7826C49A653BD987045AB8E6D6
:10023000A7F91B45C6987A24F8A6441A99C7257BC6
:100240003A6486D85B05E7B98CD2306EEDB3510FB6
:100250004E10F2AC2F7193CD114FADF3702ECC92A6
:10026000D38D6F31B2EC0E50AFF1134DCE90722C96
:100270006D33D18F0C52B0EE326C8ED0530DEFB186
:10028000F0AE4C1291CF2D73CA947628ABF5174976
:100290000856B4EA6937D58B5709EBB536688AD466
:1002A00095CB2977F4AA4816E9B7550B88D6346A56
:1002B0002B7597C94A14F6A8742AC896154BA9F746
:1002C000B6E80A54D7896B350000210024002700C6
:1002D0002A002D0030003300010100000401070155
:1002E0000A0100000A0B02090C0D0E0807030401A5
:1002F00000000000000000000000000000000000FE
:1003000000000000000000000000000000001211CA
:1003100010000000000000000000000000000000CD
:100320000000000000000000521311241FBECFEF98
:10033000D1E2DEBFCDBF00E00CBF25E0AEE0B4E00F
:1003400001C01D92A33BB207E1F714E0A0E0B2E0C8
:10035000E2E1F2E300E00BBF02C007900D92AE3085
:10036000B107D9F711E0C5E9D1E000E006C0219757
:100370000109802FFE010E94BD16C439D10780E01B
:100380000807A9F70E94820D0C94071939CE8F92A5
:100390009F92AF92BF92CF92DF92EF92FF92CF9354
:1003A000DF93A0916405882311F03A2F01C030E05B
:1003B0008091650590E0880F991F885F9E4FC090DF
:1003C0006A05D0906B05E0906C05F0906D0540E0FB
:1003D00050E0BA01FC01C591D49128812A2323134E
:1003E0000FC04A015B012FEF821A920AA20AB20AD9
:1003F0004C155D056E057F0538F4B501A401EACF03
:10040000342F252FCB0104C030E020E080E090E0C5
:10041000632F722FDF91CF91FF90EF90DF90CF90FD
:10042000BF90AF909F908F900895CF92DF92EF9200
:10043000FF920F931F93CF93DF936C017A018B018F
:10044000C0E0D0E0CE15DF0589F0D8016D918D01B7
:10045000D601ED91FC910190F081E02DC601199536
:10046000892B11F47E0102C02196ECCFC701DF91E8
:10047000CF911F910F91FF90EF90DF90CF90089553
:10048000EF92FF920F931F93CF93DF93EC016230B3
:1004900018F08F8588608F876B8B1C8A80E48D8B2A
:1004A00080E18E8B80E58F8B61E08C81DAD78D8146
:1004B0008F3F11F061E0D5D761E08E81D2D77E0108
:1004C00087E0E80EF11C00E010E08F8584FD03C09A
:1004D00084E090E002C088E090E00817190744F437
:1004E00061E0F70181917F01BCD70F5F1F4FEDCF16
:1004F0008BE39DE00197F1F760E08C8170D760E0BD
:100500008E816DD78D818F3F11F060E068D76F8548
:1005100064FD1DC063E0CE010E94830C0BE416E471
:10052000C8010197F1F763E0CE010E94830CC80176
:100530000197F1F763E0CE010E94830C83E592E01E
:100540000197F1F762E0CE010E94830C16C0606251
:10055000CE010E94000D8BE496E40197F1F76F85C0
:100560006062CE010E94000D83E592E00197F1F7F1
:100570006F856062CE010E94000D6F856062CE01C2
:100580000E94000D84E0888B6CE0CE010E94000D7B
:1005900061E0CE010E94000D8BE39FE10197F1F72E
:1005A00082E0898B66E0CE01DF91CF911F910F91A0
:1005B000FF90EF900C94000DCF92DF92EF92FF929C
:1005C0006B017C01E0917504F091760482E08083F8
:1005D000C11481EED806E104F104B1F060E079E0E5
:1005E0008DE390E0A70196010E948715DA01C90109
:1005F0000197A109B109B695A795979587959C0193
:10060000211580E13807B8F0E0917504F091760487
:10061000108260E874E88EE190E0A70196010E94E4
:100620008715DA01C9010197A109B109B695A79506
:10063000979587959C01E0917104F0917204308345
:10064000E0917304F0917404208310927D04E09192
:100650007904F0917A0486E08083E0917704F09148
:100660007804808180618083E0917704F091780440
:10067000808188608083E0917704F09178048081A4
:1006800080688083E0917704F091780480818F7D89
:100690008083FF90EF90DF90CF900895AF92BF924C
:1006A000CF92DF92EF92FF920F931F93CF93DF933E
:1006B000EC018B0180914F05909150050E94BD0B7C
:1006C000882399F1BE0180914F05909150050E94B9
:1006D0006E0B40E06EEB80914F0590915005BDD7B9
:1006E000E801680189E0C80ED11CA0904F05B090C8
:1006F000500588E0E82EF12C01E010E0C5010E94D1
:10070000990B8111102B000F81E0E81AF108B1F765
:100710001993CC15DD0549F780914F05909150054F
:100720000E94BD0B91E0813009F090E0892FDF91AC
:10073000CF911F910F91FF90EF90DF90CF90BF90DE
:10074000AF9008950F931F93CF93DF93CDB7DEB78C
:1007500029970FB6F894DEBF0FBECDBFBED600916D
:100760009005109191052091920530919305DC013F
:10077000CB01801B910BA20BB30BC297A105B10556
:1007800068F3F8948091890590918A059A8389830A
:10079000E0918E05F0918F05DF01119680818987A8
:1007A00090918C05E0919405F091950580919605C6
:1007B00091FF28C09081982B9887908180958923FC
:1007C0008F838F818C8388E08B83588519852B815B
:1007D0003C814F8169817A81CB01508317FD352F90
:1007E0002A953083342F39F0111F00C00000408358
:1007F000000000C0F2CF28E01D9140830000019767
:1008000061F732C09081982B9887908180958923D9
:100810008F838F818E8388E08D83588519852D8104
:100820003E814F8169817A81CB01508317FD352F3D
:1008300000C000C0308300C000C000C000C000C0C5
:1008400040830000342F2A9541F0111F000000C0A2
:1008500000C000C000C000C0E8CF28E01D9100C06B
:10086000408300C0019709F7789437D660939005CC
:1008700070939105809392059093930529960FB6F6
:10088000F894DEBF0FBECDBFDF91CF911F910F91C6
:1008900008958F929F92AF92BF92CF92DF92EF9284
:1008A000FF92CF93DF934B01AA24BB24A82DC52E22
:1008B000D62EE72EFF243C2DB42F20918D05222328
:1008C00061F0829E40011124A92DC29E6001112475
:1008D0003D2D429FA0011124B52FFC01EE0FFF1FFB
:1008E0008E0F9F1FE0918E05F0918F05E80FF91F85
:1008F00080918C05EF01229680FF03C03083A18395
:1009000002C0A0833183B883DF91CF91FF90EF9035
:10091000DF90CF90BF90AF909F908F900895CF932E
:10092000DF93CDB7DEB729970FB6F894DEBF0FBEC1
:10093000CDBFFC012081203109F1BE016F5F7F4FE7
:10094000ADDE882371F068E0CE01019679D69985F5
:10095000891307C008C0803458F08F3569F08F378D
:1009600069F080E00CC08D818F33A9F78AE007C061
:100970008F31B9F789E003C08BE001C08CE0299684
:100980000FB6F894DEBF0FBECDBFDF91CF910895B3
:10099000643008F063E090918205691710F06FEF02
:1009A000690FE62FF0E0E159FA4F9489682F690F3B
:1009B00060688FE695E00C94000DCF92DF92EF9285
:1009C000FF920F931F93CF93DF93CDB7DEB7C05441
:1009D000D1400FB6F894DEBF0FBECDBFDBD500917E
:1009E00066051091670520916805309169056B01D6
:1009F0007C01C01AD10AE20AF30A40EDC41647E0AE
:100A0000D406E104F10418F480916E05B1C060933E
:100A10006605709367058093680590936905109249
:100A200061051092600510925F0510925E051092AC
:100A30005D0561E080916205D2D46AEF70E080E0EC
:100A400090E070D561E0809162050BD560E0809107
:100A50006205C5D464E170E080E090E063D5F8946D
:100A600061E080916205BBD48BE990E00197F1F7DA
:100A700062E080916205F5D483E290E00197F1F79E
:100A800080E085DC672B682B692B21F410926E05C2
:100A900078943BC081E07BDC672B682B692BB1F33A
:100AA0008E010F5F1F4F6E018FEBC81A8EEFD80AB1
:100AB000780180E06CDCF70160837183828393832B
:100AC00081E065DCF7016483758386839783F8E0B2
:100AD000EF0EF11CEC14FD0461F7789420E030E097
:100AE000F8014081518162817381C480D580E680A4
:100AF000F780411551056105710529F0C114D10434
:100B0000E104F10421F410926E0580E031C0F90196
:100B100083E0F595E7958A95E1F7E35AFA4F8081EE
:100B2000880F4C155D056E057F0508F48160808394
:100B30002F5F3F4F085F1F4F2832310589F6209104
:100B4000610530E040915D0580915E0590E0840F85
:100B5000911D40915F05840F911D40916005840FA8
:100B6000911D99272817390771F681E080936E054A
:100B7000C05CDE4F0FB6F894DEBF0FBECDBFDF9175
:100B8000CF911F910F91FF90EF90DF90CF9008953C
:100B9000CF92DF92EF92FF92CF93DF93C82F0DDFBA
:100BA000882309F448C0909163059B3031F008F424
:100BB00042C09551923048F03EC060915F0570E0B0
:100BC00080E090E00E94721427C0D0915F056D2FE5
:100BD0006F7770E080E090E00E94741420E030E0D5
:100BE00040E853E40E94D3146B017C0140916005FE
:100BF000642F70E080E090E00E9474149B01AC01CF
:100C0000C701B6010E94AA152DEC3CEC4CEC5DE34B
:100C10000E94D314D7FD9058CC2389F026E636E6FF
:100C200046EE5FE30E94D31420E030E040E052E45F
:100C30000E94AA1504C060E070E080EC9FE7DF919D
:100C4000CF91FF90EF90DF90CF9008950F931F9377
:100C5000CF93DF93EC0188819981009729F02A8155
:100C60003B812617370788F48B016F5F7F4F0E9407
:100C70000618009761F0998388831B830A832C816F
:100C80003D81232B11F4FC01108281E001C080E042
:100C9000DF91CF911F910F910895FC018081918187
:100CA0000C946E17EF92FF920F931F93CF93DF93E5
:100CB000EC01198218821B821A821D821C82611526
:100CC000710541F18B01FB0101900020E9F731979B
:100CD0007F01E61AF70AB701B9DF2881398181114E
:100CE0000DC02115310519F0C9010E946E17198236
:100CF00018821D821C821B821A820CC0FD82EC822B
:100D0000B801C901DF91CF911F910F91FF90EF9032
:100D10000C940019DF91CF911F910F91FF90EF90EC
:100D200008956115710579F0FB0101900020E9F744
:100D30003197AF01461B570BDC01ED91FC9102800E
:100D4000F381E02D199480E090E008954F925F9236
:100D50006F927F92EF92FF920F931F93CF93DF9347
:100D6000CDB7DEB7A1970FB6F894DEBF0FBECDBFEB
:100D70007C01FA01CB0119A2223008F42AE08E018D
:100D80000F5D1F4F422E512C612C712CBF01A3010E
:100D900092010E948715F901CA01015011096A30B8
:100DA00014F4605D01C0695CD8016C93232B242B83
:100DB000252B61F7B801C701B4DFA1960FB6F894EF
:100DC000DEBF0FBECDBFDF91CF911F910F91FF907E
:100DD000EF907F906F905F904F9008954F925F9249
:100DE0006F927F928F929F92AF92BF92CF92DF923B
:100DF000EF92FF926B017C01B42E9B01AC010E942B
:100E0000A616882319F062E074E027C02601370196
:100E1000E89477F82FEF3FEF4FE75FE7C301B201A8
:100E20000E94A61681110DC02FEF3FEF4FE75FE73D
:100E3000C301B2010E946E1418161CF466E074E03F
:100E40000CC02FEF3FEF4FE75FE4C701B6010E94F0
:100E5000A21618168CF46AE074E08FE695E0FF9015
:100E6000EF90DF90CF90BF90AF909F908F907F904A
:100E70006F905F904F9055CF2FEF3FEF4FE75FECB4
:100E8000C701B6010E946E1487FDE5CF20E030E077
:100E9000A901C701B6010E946E1487FF11C0E0913D
:100EA0006F05F09170050190F081E02D6DE28FE605
:100EB00095E019954C01F7FAF094F7F8F09402C018
:100EC000812C912CA12C60E070E080E09FE3AB14BA
:100ED00041F020E030E040E251E40E940E16A3947D
:100EE000F6CF9B01AC01C701B6010E94AA152B01E8
:100EF0003C010E9476166B017C010E9472149B01DA
:100F0000AC01C301B2010E94A9152B013C012AE0EA
:100F1000B701A6018FE695E019DF7C01E80CF91C0A
:100F2000BB2069F0E0916F05F09170050190F081B0
:100F3000E02D6EE28FE695E01995E80EF91EDB2CA8
:100F4000DD2029F120E030E040E251E4C301B201AC
:100F50000E94D3142B013C010E9476164B01A12C58
:100F6000B12C2AE0B501A4018FE695E0EFDEE80E92
:100F7000F91EC501B4010E9472149B01AC01C301AA
:100F8000B2010E94A9152B013C01DA94D9CFC70107
:100F9000FF90EF90DF90CF90BF90AF909F908F9099
:100FA0007F906F905F904F900895BBCEFC01538D62
:100FB000448D252F30E0842F90E0821B930B541733
:100FC00010F0CF96089501970895FC01918D828DC0
:100FD000981761F0828DDF01A80FB11D5D968C918D
:100FE000928D9F5F9F73928F90E008958FEF9FEF98
:100FF0000895FC01918D828D981731F0828DE80F54
:10100000F11D858D90E008958FEF9FEF0895FC010D
:10101000918D228D892F90E0805C9F4F821B9109DA
:101020008F739927089585E694E0F1DF21E0892BFD
:1010300009F420E0822F0895FC01848DDF01A80FC0
:10104000B11DA35ABF4F2C91848D90E001968F73F0
:101050009927848FA689B7892C93A089B1898C910F
:1010600080648C93938D848D981306C00288F389D5
:10107000E02D80818F7D80830895EF92FF920F9302
:101080001F93CF93DF93EC0181E0888F9B8D8C8D34
:10109000981305C0E889F989808185FD23C0F62E63
:1010A0000B8D10E00F5F1F4F0F731127E02E8C8DFB
:1010B000E8120BC00FB607FCFACFE889F9898081E6
:1010C00085FFF5CFCE01B8DFF2CF8B8DFE01E80FA3
:1010D000F11DE35AFF4FF0820B8FEA89FB89808173
:1010E000806207C0EE89FF896083E889F989808181
:1010F0008064808381E090E0DF91CF911F910F9118
:10110000FF90EF900895CF93DF93EC01888D8823B3
:10111000C1F0EA89FB89808185FD05C0A889B9896C
:101120008C9186FD0EC00FB607FCF5CF808185FF40
:10113000F2CFA889B9898C9185FFEDCFCE017CDFF4
:10114000E8CFDF91CF91089580E090E0892B19F0EE
:101150006ADF811125C080E090E0892B41F080E0BA
:1011600090E0892B21F00E94000081111CC080E0DA
:1011700090E0892B41F080E090E0892B21F00E94E3
:101180000000811113C080E090E0892BA1F080E085
:1011900090E0892B81F00E94000081110AC008951F
:1011A0000E940000D8CF0E940000E1CF0E94000002
:1011B000EACF0C940000089590E0FC013197E231F1
:1011C000F10508F04EC08827EE58FF4F8F4F0C9462
:1011D000BD16809180008F7703C0809180008F7D45
:1011E00080938000089580918000877FF9CF84B537
:1011F0008F7702C084B58F7D84BD08958091B00043
:101200008F7703C08091B0008F7D8093B0000895E8
:10121000809190008F7707C0809190008F7D03C0F0
:1012200080919000877F8093900008958091A00026
:101230008F7707C08091A0008F7D03C08091A000B0
:10124000877F8093A0000895809120018F7707C049
:10125000809120018F7D03C080912001877F809342
:1012600020010895FC0190810180F281E02D892FF9
:10127000809560FF12C0F89422818223828381814D
:10128000892B8183A3E2B0E01197F1F78281982B3B
:101290009283789487ED90E011C0F89422818223A4
:1012A00082838181892B8183AFEFB0E01197F1F7C1
:1012B0008281982B928378948FE090E00197F1F7E8
:1012C00008950895089580E090E008950E94EA1836
:1012D0001F920F920FB60F9211240BB60F922F93FD
:1012E0003F934F935F936F937F938F939F93AF93AE
:1012F000BF93EF93FF9385E694E09EDEFF91EF911D
:10130000BF91AF919F918F917F916F915F914F911D
:101310003F912F910F900BBE0F900FBE0F901F901B
:1013200018951F920F920FB60F9211240BB60F92C1
:101330002F938F939F93EF93FF93E0917504F09118
:1013400076048081E0917B04F0917C0482FD12C0E0
:10135000908180917E048F5F8F7320917F0482172C
:1013600051F0E0917E04F0E0EB59FB4F958F8093B4
:101370007E0401C08081FF91EF919F918F912F9109
:101380000F900BBE0F900FBE0F901F901895CF932C
:10139000DF93282F30E0F901EE51FD4F8491F901E0
:1013A000EE5DFE4FD491F901EE57FE4FC491CC2370
:1013B00089F0811101DFEC2FF0E0EE0FFF1FE85FF5
:1013C000FE4FA591B491EC91ED2381E090E021F4E2
:1013D00080E002C080E090E0DF91CF9108951F93FC
:1013E000CF93DF93282F30E0F901EE51FD4F849128
:1013F000F901EE5DFE4FD491F901EE57FE4FC49115
:10140000CC23C1F0162F8111D7DEEC2FF0E0EE0FC8
:10141000FF1FE859FE4FA591B4918FB7F8941111B1
:1014200005C09C91ED2FE095E92302C0EC91ED2BD6
:10143000EC938FBFDF91CF911F910895CF93DF93EE
:10144000EC0160E08E81CBDF61E08E81C8DF60E07F
:101450008E81C5DF8BE891E00197F1F7DF91CF91A5
:101460000895CF93DF9390E0FC01EE5DFE4F249151
:10147000FC01EE57FE4F8491882361F190E0880FC4
:10148000991FFC01E853FD4FC591D491FC01E85927
:10149000FE4FA591B491611109C09FB7F89488815E
:1014A000209582238883EC912E230BC0623061F457
:1014B0009FB7F8943881822F809583238883EC919D
:1014C0002E2B2C939FBF06C08FB7F894E8812E2B4C
:1014D00028838FBFDF91CF9108953FB7F894809113
:1014E000AB059091AC05A091AD05B091AE0526B5C8
:1014F000A89B05C02F3F19F00196A11DB11D3FBF4C
:10150000BA2FA92F982F8827820F911DA11DB11DD9
:10151000BC01CD0142E0660F771F881F991F4A95D5
:10152000D1F708958F929F92AF92BF92CF92DF92A0
:10153000EF92FF926B017C01D0DF4B015C01C11483
:10154000D104E104F104E9F0C8DFDC01CB01881922
:101550009909AA09BB09883E9340A105B10578F312
:1015600021E0C21AD108E108F10888EE880E83E074
:10157000981EA11CB11CC114D104E104F10421F78F
:10158000DECFFF90EF90DF90CF90BF90AF909F9015
:101590008F9008952FB7F8946091A7057091A805D2
:1015A0008091A9059091AA052FBF08951F920F92CF
:1015B0000FB60F9211242F933F938F939F93AF9366
:1015C000BF938091A7059091A805A091A905B0911E
:1015D000AA053091A60523E0230F2D3720F40196AC
:1015E000A11DB11D05C026E8230F0296A11DB11D46
:1015F0002093A6058093A7059093A805A093A9051D
:10160000B093AA058091AB059091AC05A091AD0572
:10161000B091AE050196A11DB11D8093AB059093CD
:10162000AC05A093AD05B093AE05BF91AF919F916E
:101630008F913F912F910F900FBE0F901F90189593
:10164000DC01E0E0615038F08D91E827F0E0E853EC
:10165000FE4FE491F7CF8E2F0895CF92DF92EF9255
:10166000FF920F931F93CF93DF931F92CDB7DEB7F7
:101670006C01E62E08E010E0FF24F39461E08F2D6A
:101680008E2109F460E0C6014983ECDDFF0C0150B6
:10169000110949810115110589F7411115C0F89407
:1016A000D6011196ED91FC91129791818C918095C4
:1016B000892381831196ED91FC91129792818C91EF
:1016C00080958923828378940F90DF91CF911F9129
:1016D0000F91FF90EF90DF90CF900895CF92DF921F
:1016E000EF92FF920F931F93CF93DF931F92CDB78B
:1016F000DEB78C01F62E40E065E57983AEDFCF2CB6
:101700007981D72E760188E0E80EF11CF60161910F
:101710006F0140E0C801A1DFCE14DF04B9F70F90DC
:10172000DF91CF911F910F91FF90EF90DF90CF90BD
:101730000895FC0190810180F281E02DF89481816F
:10174000892B81832281892F809528232283A7E0FA
:10175000B0E01197F1F7218182238183A3E2B0E009
:101760001197F1F780817894EFECF0E03197F1F781
:10177000982381E009F480E00895FC0190810180C4
:10178000F281E02DF8948181292F20958223818395
:1017900078948DE743E050E0815021F1DA01119710
:1017A000F1F730813923C1F3F89482818223828357
:1017B0008181892B81837894ABE7B7E01197F1F7AA
:1017C000F894818128232183A3E1B1E01197F1F7F7
:1017D0008081982381E009F080E07894E3E6F6E0E8
:1017E0003197F1F70895AF92BF92CF92DF92EF92C7
:1017F000FF920F931F93CF93DF931F92CDB7DEB766
:101800005C01E62ED72EFC018585811158C0C501EB
:10181000B4DF811105C0F50113861586148667C0F3
:1018200040E060EFC50119DF01E0F12CC12C11E0AF
:10183000C5017FDF682FC50169837BDF6981613066
:1018400019F48130B9F432C04F2D50E068131BC039
:10185000F5018385181730F4E40FF51F8381802389
:1018600049F402C0181731F060E0193058F4F5015E
:10187000148708C0F501EF0DF11D8381802B838350
:1018800061E009C0C12EF501E40FF51F9381802F9F
:10189000809589238383C501E5DC1F5F000F11F468
:1018A000F39401E0F7E0FF1508F0C2CF113438F0EF
:1018B000F501C386C11015C081E0858712C0F5010E
:1018C00013861586148680E0D5011396EE2DFD2D26
:1018D0009501255F3F4F9D919193A217B307D9F7CB
:1018E00006C0F5018381882351F381E0EDCF0F908D
:1018F000DF91CF911F910F91FF90EF90DF90CF90EC
:10190000BF90AF900895CF92DF92EF92FF920F9326
:101910001F93CF93DF937C016C0187E0C80ED11C2D
:10192000C0E0D0E0062F10E0B8010C2E02C0759583
:1019300067950A94E2F76170F60181916F014FDDBE
:101940002196C430D10581F7C701DF91CF911F9156
:101950000F91FF90EF90DF90CF9070CDCF92DF92FC
:10196000EF92FF920F931F93CF93DF93EC01F62E2C
:10197000642F8C8134DD8D818F3F11F060E02FDD8D
:101980008F850F2D10E084FF23C06E0187E0C80E05
:10199000D11CE12CF12CB8010E2C02C07595679575
:1019A0000A94E2F76170F60181916F0118DDFFEF93
:1019B000EF1AFF0A88E0E816F10469F7CE01DF911B
:1019C000CF911F910F91FF90EF90DF90CF9036CD88
:1019D000B80184E0759567958A95E1F7CE0193DFAC
:1019E0006F2DCE01DF91CF911F910F91FF90EF905E
:1019F000DF90CF9088CF41E0B1DF81E090E00895A3
:101A000040E0ACCFCF93DF93EC018091A50581112D
:101A100009C060E072EC81E090E00E94DC0281E0AD
:101A20008093A5054C815D816881798185E694E08C
:101A30000E94150261E572E085E694E0DF91CF91A6
:101A400070C9EF92FF920F931F93CF93DF93EA0138
:101A5000E82EF12C062F10E00E151F05C0F198811D
:101A60009E0D953570F4492F440F940F892F809562
:101A7000492F50E060E070E0BA0155274427582B09
:101A800018C09A3A60F49555492F440F940F892F46
:101A90008095492F50E060E070E0682B0AC09A5AA8
:101AA000892F880F980F492F409550E060E070E033
:101AB000592B8091870590918805E816F90618F44E
:101AC000C7010E9449048FEFE81AF80AC5CF809138
:101AD0008E0590918F05892B11F00E94A2038881B9
:101AE000998101968F3F910509F018F499838883B5
:101AF00002C019821882DF91CF911F910F91FF9040
:101B0000EF900895CF93DF93CDB7DEB767970FB609
:101B1000F894DEBF0FBECDBF789484B5826084BDDB
:101B200084B5816084BD85B5826085BD85B58160E1
:101B300085BD80916E00816080936E00109281005F
:101B4000809181008260809381008091810081601A
:101B500080938100809180008160809380008091DB
:101B6000B10084608093B1008091B0008160809367
:101B7000B0008091910082608093910080919100EB
:101B800081608093910080919000816080939000AB
:101B90008091A10082608093A1008091A10081606A
:101BA0008093A1008091A00081608093A00080912B
:101BB00021018260809321018091210181608093C5
:101BC00021018091200181608093200180917A0021
:101BD000846080937A0080917A00826080937A009A
:101BE00080917A00816080937A0080917A00806889
:101BF00080937A001092C10010924605109247051A
:101C0000109248051092490510920405109205059E
:101C10001092060510920705BDDC6B017C014B019B
:101C20005C0128EB820E2BE0921EA11CB11CB2DCE1
:101C30006C157D058E059F0528F086169706A8066B
:101C4000B906A8F785E694E090934505809344058E
:101C500060E072EC81E090E00E94DC029BDC60932B
:101C6000040570930505809306059093070562E4CB
:101C700072E0809144059091450597D98BDC6B010A
:101C80007C014B015C013AE0830E911CA11CB11C4C
:101C900081DC6C157D058E059F0528F0861697065C
:101CA000A806B906A8F781E08093180561E087E1EE
:101CB000D8DB61E089E1D5DB60E08BE1D2DB60E07D
:101CC0008DE1CFDB60E08FE1CCDB60E081E2C9DB5E
:101CD00060E083E2C6DB60E085E2C3DB60E087E2D0
:101CE000C0DB60E086E3BDDB61E089E2BADB61E096
:101CF0008AE2B7DB61E08BE2B4DB61E08CE2B1DB6E
:101D000061E08DE2AEDB61E08EE2ABDB60E08FE2B2
:101D1000A8DB61E080E3A5DB61E081E3A2DB60E0BA
:101D200082E39FDB61E083E09CDB61E083E399DB9E
:101D300061E084E396DB8EE090E09093470480932B
:101D4000460461E080918B058CDB60E080918B051F
:101D500046DB8FEF99E1A9E1B0E080930E04909308
:101D60000F04A0931004B0931104E12CF12C809186
:101D7000870590918805E816F90638F44FEF59E188
:101D800069E170E0C7010E9449044FEFE41AF40AC8
:101D90005EE0E516F10459F780918E0590918F056C
:101DA000892B11F00E94A20362E08FE695E00E9469
:101DB000400260E080E00E94C80464E572E08FE6C3
:101DC00095E0F3D862E0809162054BDB80E398EF09
:101DD000AFEFBFEF8093660590936705A09368050A
:101DE000B0936905E0914F05F09150051386158673
:101DF0001486DF011B9633961E92AE17BF07E1F7DC
:101E000010924E0511E0BE01665F7F4F80914F0535
:101E100090915005E8DC882309F44BC067E0CE01BF
:101E20000A960EDC99898913EECF80914A058111BB
:101E300022C080914F05909150059FDCBE01665FE6
:101E40007F4F80914F059091500548DC40E064EB56
:101E500080914F059091500500DC80914F05909145
:101E6000500567DCF82E80914F059091500585DC78
:101E7000FF2009F48AC3BE016F5F7F4FCE010A962F
:101E80000E944E03F0904B05CE010A960E948F04EB
:101E90008F1518F480914B0504C0CE010A960E945C
:101EA0008F0480934B0580914E058F5F80934E0584
:101EB000AACF60E672E0CE0101960E945206CE01E2
:101EC0000196A0DDCE0101960E944D0663DB672BD3
:101ED000682B692B39F45EDB623071058105910551
:101EE00008F414C157DB609361047093620480931B
:101EF000630490936404C0905D04D0905E04E0900D
:101F00005F04F09060046C157D058E059F0540F41C
:101F100060935D0470935E0480935F04909360040B
:101F2000C0905D04D0905E04E0905F04F090600487
:101F30009B01AC012C193D094E095F0969017A0129
:101F40003AEFC316D104E104F10408F4DFC0609352
:101F50005D0470935E0480935F049093600484EF4B
:101F600091E0A0E0B0E08093100590931105A0935C
:101F70001205B093130510921405109215051092D6
:101F80001605109217058091080590910905A091FA
:101F90000A05B0910B0580930C0590930D05A09355
:101FA0000E05B0930F05F6DA6093080570930905E6
:101FB00080930A0590930B05EDDA60930405709306
:101FC00005058093060590930705E4DA6B017C0113
:101FD00060E772E080914405909145050E94D50725
:101FE0002AE041E050E060E070E08091440590918B
:101FF00045050E94A60667E772E08091440590912E
:1020000045050E94D5072AE0B701A6018091440545
:10201000909145050E94A60669E772E0809144050B
:10202000909145050E94D50780910805909109057A
:10203000A0910A05B0910B05B701A601481B590BE9
:102040006A0B7B0B2AE080914405909145050E9424
:10205000A60669E772E080914405909145050E94CB
:10206000D507409108055091090560910A057091C6
:102070000B0580910C0590910D05A0910E05B09176
:102080000F05481B590B6A0B7B0B2AE08091440516
:10209000909145050E94A6066BE772E08091440589
:1020A000909145050E94D50775DAAB01BC012AE085
:1020B00080914405909145050E94A606E090440554
:1020C000F09045056DE772E0C7010E94910661E559
:1020D00072E0C7010E9491065DDA6B017C014B0141
:1020E0005C0195E0890E911CA11CB11C53DA6C15A2
:1020F0007D058E059F0508F04BC24CDA60930805FC
:102100007093090580930A0590930B058BE13FD9E5
:10211000182F90914904113051F49130E1F061E0B1
:1021200087E15DD91093490464E872E009C09130F9
:1021300091F460E087E153D9109249046FEA72E0AC
:10214000CE0101960E945206CE0101965BDCCE01C3
:1021500001960E944D068DE11AD9182F90914804DE
:10216000113051F49130E1F061E089E138D91093F8
:1021700048046AED72E009C0913091F460E089E1B1
:102180002ED91092480465E073E0CE0101960E94BA
:102190005206CE01019636DCCE0101960E944D0614
:1021A00060E373E0CE0142960E9452068E899F89B9
:1021B000892B49F060E373E08A899B890E94F718B4
:1021C000892B09F462C063E373E0CE010A960E9492
:1021D00052068E899F89CA88DB88EE84FF84C114E9
:1021E000D104B1F00097F9F0E80EF91EB701CE0165
:1021F0000A960E942606882359F02A853B858E85FB
:102200009F85B601820F931FFBD7FF86EE860BC01A
:102210008A859B85009709F061D61B861A861F86E2
:102220001E861D861C861A8219821C821B821E82B3
:102230001D82EA84FB84E114F104E1F0CE84DF84A2
:10224000B601CE0101960E94260629813A818111AC
:102250000CC02115310511F0C90140D61A8219822E
:102260001E821D821C821B8205C0DE82CD82B701C8
:10227000C901C6D7CE010196C5DBCE0101960E94E9
:102280004D06CE010A960E944D0684D9C0904C049A
:10229000D0904D04E0904E04F0904F04A5E0CA0E9B
:1022A000D11CE11CF11CC616D706E806F90610F58C
:1022B00046E052E061E080E0C4DB44E052E063E0ED
:1022C00082E0BFDB42E052E069E084E0BADB40E05C
:1022D00052E06BE08AE0B5DB4AE454E06DE08CE06C
:1022E000B0DB58D960934C0470934D0480934E0436
:1022F00090934F040E94DD04882381F1809163054F
:102300008B3019F158F18551823040F560915D05AF
:1023100070E080E090E0E6D220E030E040E853E476
:1023200042D36B017C0180915E05682F70E080E0F4
:1023300090E0DAD29B01AC01C701B6010BD42DECC1
:102340003CEC4CEC5DE32FD306C060915D0570E082
:1023500080E090E0C7D26B017C0106C0C12CD12C7B
:1023600070ECE72E7FE7F72E80E00E94C8052B0176
:102370003C0181E00E94C8054B015C01A701960168
:10238000C701B601E3D481110AC1A3019201C301BF
:10239000B201DCD4811103C1A5019401C501B401CE
:1023A000D5D48111FCC061E080E00E94C80463E6DE
:1023B00073E08FE695E00E94D50761E082E00E941D
:1023C000C80442E0C701B6010E94EE0661E086E063
:1023D0000E94C80467E673E08FE695E00E94D50787
:1023E00042E0C501B4010E94EE06D4D8C090540466
:1023F000D0905504E0905604F0905704C616D706C6
:10240000E806F90608F072C080914F0590915005DA
:10241000B4D940E06CEC80914F05909150051DD9E6
:1024200040914A0564E480914F059091500515D97B
:1024300080914C058823A1F0E0914B05E950E330F1
:1024400040F4F0E0EE0FFF1FE25FFD4F608171810D
:1024500002C06EEE72E0072E000C880B990B62D85A
:10246000E0914F05F0915005138615861486DF0123
:102470001B96CF0103961E92A817B907E1F7BE017C
:10248000665F7F4FCF01AFD9882341F067E0CE016F
:102490000A96D6D89989891709F4B6C060E070E029
:1024A0008EEF92EC26E636E646EE5FE37CD220E045
:1024B00030E040E052E44ED36B017C016BD8609376
:1024C0005004709351048093520490935304DC01A0
:1024D000CB0188579C4EAF4FBF4F809354049093CD
:1024E0005504A0935604B093570403C0C12CD12CBB
:1024F000760150D820E030E0A901C701B601EED145
:10250000882341F0C0925904D0925A04E0925B04AF
:10251000F0925C0460E080E00E94C804609159047D
:1025200070915A0480915B0490915C0442E00E9497
:10253000EE068FE10E94C70990915804813099F40A
:10254000913009F450C0809358046CE673E0CE01DA
:1025500001960E945206CE01019654DACE010196F0
:102560000E944D0640C09130B9F51092580464E9BC
:1025700073E0CE0101960E945206CE01019642DA26
:10258000CE0101960E944D0627C010934A0573CCD8
:1025900086169706A806B90608F0A8CDAECD61E06C
:1025A00080E00E94C8046FEB73E08FE695E00E9424
:1025B000D50764ED73E0CE0101960E945206CE016C
:1025C000019620DACE0101960E944D06812C912CB5
:1025D000540175016401E7CE60E08AE00E94C804FE
:1025E00064EF73E006C060E08AE00E94C8046BEF0D
:1025F00073E08FE695E00E94D507CE0142960E94D7
:102600004D060E94A40862CCBE016F5F7F4FCE01D1
:102610000A960E944E03882339F068E0CE010196A5
:102620000FD89985891791F060E874EE613854EEFF
:1026300075070CF433CF072E000C880B990B54D17F
:1026400020E030E040E05CE3AED12CCF698188E04F
:10265000689FB00111248A81282F30E0322F222771
:10266000330F330F330F262B372B8A858031C1F47C
:10267000688570E08F81AB01481B5109CA019695AE
:10268000982F88279795879565D360517109207F8A
:1026900053E0220F331F5A95E1F7620F731FC6CF25
:1026A000B901C4CF109268041092670488EE93E0D9
:1026B000A0E0B0E08093690490936A04A0936B0457
:1026C000B0936C0488E192E0909366048093650473
:1026D00085EC90E0909372048093710484EC90E018
:1026E000909374048093730480EC90E0909376044C
:1026F0008093750481EC90E0909378048093770444
:1027000082EC90E090937A048093790486EC90E0D8
:1027100090937C0480937B0410927E0410927F043B
:1027200010928004109281041092080510920905FD
:1027300010920A0510920B0510920C0510920D05CF
:1027400010920E0510920F051092100510921105AF
:10275000109212051092130510921405109215058F
:1027600010921605109217058EE090E09093880560
:10277000809387058AE290E090938A05809389058B
:1027800082E080938B0583E080938C05E4E8F1E0A0
:10279000E491F0E0EE0FFF1FE859FE4F8591949110
:1027A0009093950580939405E4E2F1E0E491E09341
:1027B00096058AE290E0FDD290938F0580938E0576
:1027C000009729F02AE2FC0111922A95E9F710926C
:1027D0007205109271058AE292E0909370058093E1
:1027E0006F0589E2809373058FEF809374058AE209
:1027F000809375058BE2809376058CE28093770554
:102800008DE2809378058EE28093790510927A05A7
:1028100010927B0510927C0510927D0510927E052A
:1028200061E08FE695E00E9440028FE280936205AE
:1028300086E180936305E1E5F1E0E491E0936405CE
:10284000E1EBF1E0E491E093650580E89EE3A0E030
:10285000B0E080936A0590936B05A0936C05B093EC
:102860006D0560E086E30E94310AE8E5F1E0E4915D
:10287000E0939705E8EBF1E0E491F0E0EE0FFF1F45
:10288000E85FFE4F85919491909399058093980508
:102890001092A2051092A4051092A305E2EAF5E0B9
:1028A000129285E0EA39F807D9F781E699E090932A
:1028B0005C0580935B0587E995E0909350058093D4
:1028C0004F0510924E0510924A0589E080934B0502
:1028D00081E080934C0580934D05089540D008F425
:1028E00081E00895E89409C097FB3EF490958095A7
:1028F000709561957F4F8F4F9F4F9923A9F0F92FC6
:1029000096E9BB279395F695879577956795B79543
:10291000F111F8CFFAF4BB0F11F460FF1BC06F5F29
:102920007F4F8F4F9F4F16C0882311F096E911C03B
:10293000772321F09EE8872F762F05C0662371F05C
:1029400096E8862F70E060E02AF09A95660F771F70
:10295000881FDAF7880F9695879597F90895990F4C
:102960000008550FAA0BE0E8FEEF16161706E80759
:10297000F907C0F012161306E407F50798F0621B7A
:10298000730B840B950B39F40A2661F0232B242B4F
:10299000252B21F408950A2609F4A140A6958FEF6E
:1029A000811D811D08950BD078C069D028F06ED0AC
:1029B00018F0952309F05AC05FC01124A2C07ED040
:1029C000A0F3959FD1F3950F50E0551F629FF00142
:1029D000729FBB27F00DB11D639FAA27F00DB11D9B
:1029E000AA1F649F6627B00DA11D661F829F222724
:1029F000B00DA11D621F739FB00DA11D621F839FAB
:102A0000A00D611D221F749F3327A00D611D231F80
:102A1000849F600D211D822F762F6A2F11249F57CE
:102A200050408AF0E1F088234AF0EE0FFF1FBB1FF1
:102A3000661F771F881F91505040A9F79E3F510590
:102A400070F014C05EC05F3FECF3983EDCF38695F7
:102A500077956795B795F795E7959F5FC1F7FE2B3B
:102A6000880F911D9695879597F9089597F99F6717
:102A700080E870E060E008959FEF80EC0895002406
:102A80000A941616170618060906089500240A94D3
:102A900012161306140605060895092E0394000C59
:102AA00011F4882352F0BB0F40F4BF2B11F460FFE8
:102AB00004C06F5F7F4F8F4F9F4F089557FD905811
:102AC000440F551F59F05F3F71F04795880F97FBF2
:102AD000991F61F09F3F79F08795089512161306AC
:102AE0001406551FF2CF4695F1DF08C016161706DB
:102AF0001806991FF1CF8695710561050894089510
:102B0000E894BB2766277727CB0197F90895A1E2C0
:102B10001A2EAA1BBB1BFD010DC0AA1FBB1FEE1F57
:102B2000FF1FA217B307E407F50720F0A21BB30BA2
:102B3000E40BF50B661F771F881F991F1A9469F71E
:102B400060957095809590959B01AC01BD01CF017A
:102B500008955058BB27AA270ED09FCF90DF30F0A2
:102B600095DF20F031F49F3F11F41EF485CF0EF471
:102B7000E095E7FB7BCFE92FA1DF80F3BA1762076F
:102B800073078407950718F071F49EF5B9CF0EF41A
:102B9000E0950B2EBA2FA02D0B01B90190010C016D
:102BA000CA01A0011124FF27591B99F0593F50F485
:102BB000503E68F11A16F040A22F232F342F4427DD
:102BC000585FF3CF469537952795A795F0405395D5
:102BD000C9F77EF41F16BA0B620B730B840BBAF0A5
:102BE0009150A1F0FF0FBB1F661F771F881FC2F710
:102BF0000EC0BA0F621F731F841F48F48795779524
:102C00006795B795F7959E3F08F0B3CF9395880FDA
:102C100008F09927EE0F9795879508950CD03DCF32
:102C200035DF40F02CDF30F021F45F3F19F01ECF8C
:102C3000511167CF21CF42DF98F39923C9F3552370
:102C4000B1F3951B550BBB27AA276217730784079F
:102C500038F09F5F5F4F220F331F441FAA1FA9F355
:102C600033D00E2E3AF0E0E830D091505040E69547
:102C7000001CCAF729D0FE2F27D0660F771F881FA8
:102C8000BB1F261737074807AB07B0E809F0BB0B97
:102C9000802DBF01FF2793585F4F2AF09E3F5105BB
:102CA00068F0E4CE2ECF5F3FECF3983EDCF38695E0
:102CB00077956795B795F7959F5FC9F7880F911D31
:102CC0009695879597F90895E1E0660F771F881F1D
:102CD000BB1F621773078407BA0720F0621B730BD0
:102CE000840BBA0BEE1F88F7E0950895EFDE88F0AD
:102CF0009F5790F0B92F9927B751A0F0D1F0660FE8
:102D0000771F881F991F1AF0BA95C9F712C0B13002
:102D100081F0F6DEB1E00895F3CE672F782F882793
:102D2000B85F39F0B93FCCF3869577956795B39541
:102D3000D9F73EF490958095709561957F4F8F4FB0
:102D40009F4F08950CDE08F48FEF089508DE880B7E
:102D5000990B089597FB072E16F4009406D077FD83
:102D600008D013D007FC05D03EF4909581959F4F75
:102D70000895709561957F4F0895EE0FFF1F881F8E
:102D80008BBF0790F691E02D1994AA1BBB1B51E154
:102D900007C0AA1FBB1FA617B70710F0A61BB70BCB
:102DA000881F991F5A95A9F780959095BC01CD0170
:102DB0000895CF93DF938230910510F482E090E084
:102DC000E091B105F091B20520E030E0C0E0D0E044
:102DD000309711F14081518148175907C0F04817C9
:102DE000590761F482819381209719F09B838A832C
:102DF0002BC09093B2058093B10526C021153105F3
:102E000019F04217530718F49A01BE01DF01EF01D0
:102E10000280F381E02DDCCF2115310509F1281B5B
:102E2000390B2430310590F412968D919C911397B3
:102E30006115710521F0FB019383828304C0909397
:102E4000B2058093B105FD01329644C0FD01E20F49
:102E5000F31F81939193225031092D933C933AC0F3
:102E60002091AF053091B005232B41F420910A0247
:102E700030910B023093B0052093AF0520910802EA
:102E8000309109022115310541F42DB73EB740912B
:102E90000C0250910D02241B350BE091AF05F0910F
:102EA000B005E217F307A0F42E1B3F0B28173907D4
:102EB00078F0AC014E5F5F4F2417350748F04E0F96
:102EC0005F1F5093B0054093AF058193919302C06B
:102ED000E0E0F0E0CF01DF91CF9108950F931F93D1
:102EE000CF93DF93009709F48CC0FC0132971382D3
:102EF00012820091B1051091B2050115110581F4FE
:102F000020813181820F931F2091AF053091B00550
:102F10002817390779F5F093B005E093AF0571C034
:102F2000D80140E050E0AE17BF0750F412962D9143
:102F30003C911397AD012115310509F1D901F3CF6A
:102F40009D01DA013383228360817181860F971F8F
:102F50008217930769F4EC0128813981260F371F06
:102F60002E5F3F4F318320838A819B8193838283AD
:102F7000452B29F4F093B205E093B10542C01396B6
:102F8000FC93EE931297ED01499159919E01240F04
:102F9000351FE217F30771F480819181840F951F2B
:102FA000029611969C938E938281938113969C93A3
:102FB0008E931297E0E0F0E0D80112968D919C91EB
:102FC0001397009719F0F8018C01F6CF8D919C9121
:102FD00098012E5F3F4F820F931F2091AF053091D4
:102FE000B0052817390769F4309729F41092B20513
:102FF0001092B10502C0138212821093B0050093A3
:10300000AF05DF91CF911F910F9108956F927F923D
:103010008F929F92AF92BF92CF92DF92EF92FF92E8
:103020000F931F93CF93DF93EC01009781F4CB01B3
:10303000DF91CF911F910F91FF90EF90DF90CF9094
:10304000BF90AF909F908F907F906F90B2CEFC0119
:10305000E60FF71F9C0122503109E217F30708F42D
:10306000A8C0D9010D911C91119706171707A8F058
:103070000530110508F49BC0C8010497861797070F
:1030800008F495C002501109061B170B0193119308
:103090006D937C93CF0122DF8AC05B01A01AB10A35
:1030A0004C01800E911EA091B105B091B20540E097
:1030B00050E0E12CF12C109709F44AC0A815B9058D
:1030C000D1F56D907C901197630182E0C80ED11C00
:1030D000CA14DB0480F1A3014A195B096A0182E08A
:1030E000C80ED11C1296BC9012971396AC91B5E005
:1030F000CB16D10440F0B282A38351834083D9011F
:103100006D937C930AC00E5F1F4FC301800F911F08
:10311000F90191838083EB2DFA2FE114F10431F052
:10312000D7011396FC93EE93129741C0F093B2052A
:10313000E093B1053CC08D919C91119748175907B8
:1031400008F4AC017D0112960D90BC91A02DB3CF77
:103150008091AF059091B00588159905E1F4461767
:103160005707C8F48091080290910902009741F432
:103170008DB79EB740910C0250910D02841B950BA8
:10318000E817F907B0F4F093B005E093AF05F90143
:10319000718360830CC0CB010CDE7C01009749F089
:1031A000A801BE011BD0CE0199DEC70104C0CE012B
:1031B00002C080E090E0DF91CF911F910F91FF90CE
:1031C000EF90DF90CF90BF90AF909F908F907F90C7
:1031D0006F90089581E090E0F89419C0FB01DC0144
:1031E00002C001900D9241505040D8F70895FB0164
:1031F000DC018D91019080190110D9F3990B08958C
:10320000FB01DC0101900D920020E1F70895F89494
:02321000FFCFEE
:10321200320064009600C8000000B30580005E0022
:10322200BC007701000000003D081502D6078308A4
:103232000708E507F90700000000FB0C1502630907
:10324200620936002F0029002A002B002C002D00D5
:103252002E00564D4450565F317C315F564D4450DE
:10326200560D0A004974277320416C697665210066
:10327200436F6D706C65746564205365747570007E
:10328200564D4450455F003A323A007C005F564D3D
:1032920044504500546F67676C6531207265616404
:1032A20020484947482C204C45443120686173200E
:1032B2006265656E207475726E6564204F4E0054AF
:1032C2006F67676C65312072656164204C4F572CC3
:1032D200204C45443120686173206265656E20741C
:1032E20075726E6564204F464600546F67676C6561
:1032F20032207265616420484947482C204C45447D
:103302003220686173206265656E207475726E6525
:1033120064204F4E00546F67676C6532207265619E
:1033220064204C4F572C204C454432206861732056
:103332006265656E207475726E6564204F46460044
:103342004F4B004552524F52207768696C6520639B
:103352006865636B696E6720746F67676C6520735D
:103362007769746368657320616E64204C454473A9
:103372003A2000483A20002520543A00546865203B
:103382005550206D6F746F7220636F6E74726F6C24
:1033920020686173206265656E206163746976617D
:1033A20074656400546865205550206D6F746F72A7
:1033B20020636F6E74726F6C206861732062656542
:1033C2006E2044452D6163746976617465640055AD
:1033D2006E61626C6520746F20726561642044487E
:1033E200543131004661696C656420746F207265E6
:1033F20061642066726F6D204448542073656E7359
:103402006F7221005B4E4144415D0020205B5550AC
:0E3412005D006E616E00696E66006F7666008A
:020000023000CC
:10E000000D9489F10D94B2F10D94B2F10D94B2F129
:10E010000D94B2F10D94B2F10D94B2F10D94B2F1F0
:10E020000D94B2F10D94B2F10D94B2F10D94B2F1E0
:10E030000D94B2F10D94B2F10D94B2F10D94B2F1D0
:10E040000D94B2F10D94B2F10D94B2F10D94B2F1C0
:10E050000D94B2F10D94B2F10D94B2F10D94B2F1B0
:10E060000D94B2F10D94B2F10D94B2F10D94B2F1A0
:10E070000D94B2F10D94B2F10D94B2F10D94B2F190
:10E080000D94B2F10D94B2F10D94B2F10D94B2F180
:10E090000D94B2F10D94B2F10D94B2F10D94B2F170
:10E0A0000D94B2F10D94B2F10D94B2F10D94B2F160
:10E0B0000D94B2F10D94B2F10D94B2F10D94B2F150
:10E0C0000D94B2F10D94B2F10D94B2F10D94B2F140
:10E0D0000D94B2F10D94B2F10D94B2F10D94B2F130
:10E0E0000D94B2F141546D656761323536300041AF
:10E0F000726475696E6F206578706C6F72657220DE
:10E1000073746B3530305632206279204D4C530099
:10E11000426F6F746C6F616465723E004875683F52
:10E1200000436F6D70696C6564206F6E203D200048
:10E130004350552054797065202020203D20005FF9
:10E140005F4156525F415243485F5F3D2000415658
:10E1500052204C696243205665723D20004743437C
:10E160002056657273696F6E203D20004350552024
:10E1700049442020202020203D20004C6F7720663D
:10E18000757365202020203D20004869676820665F
:10E190007573652020203D200045787420667573D6
:10E1A00065202020203D20004C6F636B2066757336
:10E1B000652020203D20004D617220203720323024
:10E1C000313300312E362E3800342E332E350056A2
:10E1D00023202020414444522020206F7020636F70
:10E1E00064652020202020696E73747275637469E1
:10E1F0006F6E2061646472202020496E74657272B3
:10E20000757074006E6F20766563746F7200726A49
:10E210006D702020006A6D70200057686174207056
:10E220006F72743A00506F7274206E6F7420737541
:10E2300070706F72746564004D7573742062652030
:10E2400061206C6574746572002000577269747483
:10E25000696E672045450052656164696E672045B7
:10E26000450045452065727220636E743D00504F35
:10E27000525400303D5A65726F2061646472003FF1
:10E280003D43505520737461747300403D454550C3
:10E29000524F4D207465737400423D426C696E6B41
:10E2A000204C454400453D44756D70204545505215
:10E2B0004F4D00463D44756D7020464C415348001B
:10E2C000483D48656C70004C3D4C69737420492F83
:10E2D0004F20506F72747300513D51756974005234
:10E2E0003D44756D702052414D00563D73686F7707
:10E2F00020696E7465727275707420566563746FF0
:10E30000727300593D506F727420626C696E6B00BD
:10E310002A0011241FBECFEFD1E2DEBFCDBF01E046
:10E320000CBF12E0A0E0B2E0EEE1FDEF03E00BBFB6
:10E3300002C007900D92A030B107D9F712E0A0E01B
:10E34000B2E001C01D92AE30B107E1F70F9460F367
:10E350000D948DFE01E20EBF0FEF0DBF11241FBE05
:10E360000D9460F30D9400F020E030E040ED57E0B4
:10E3700005C0FA013197F1F72F5F3F4F2817390792
:10E38000C0F308959C01260F311DC901A0E0B0E043
:10E390002F5F3F4FABBFFC018791882361F08093D3
:10E3A000C6008091C00086FFFCCF8091C0008064D1
:10E3B0008093C000EACF08958DE08093C6008091DD
:10E3C000C00086FFFCCF8091C00080648093C000B5
:10E3D0008AE08093C6008091C00086FFFCCF8091C8
:10E3E000C00080648093C00008950F94C2F10F9420
:10E3F000DCF10895FC019081992359F09093C600B7
:10E400008091C00086FFFCCF8091C0008064809323
:10E41000C0003196992379F70895282F982F929567
:10E420009F70892F805D8A3308F0895F8093C600D2
:10E430008091C00086FFFCCF8091C00080648093F3
:10E44000C000822F8F70982F905D9A3308F0995FEB
:10E450009093C6008091C00086FFFCCF8091C000E1
:10E4600080648093C00008959C01FB01853691056E
:10E470001CF46330710594F0C90164E670E00F94F8
:10E480002EFE605D7F4F6093C6008091C00086FFC6
:10E49000FCCF8091C00080648093C0002B30310598
:10E4A00014F43297B4F0C90164E670E00F942EFEC4
:10E4B0006AE070E00F942EFE605D7F4F6093C600AF
:10E4C0008091C00086FFFCCF8091C0008064809363
:10E4D000C000C9016AE070E00F942EFEC0968093E0
:10E4E000C6008091C00086FFFCCF8091C000806490
:10E4F0008093C00008951F93182F8EE692EE60E07F
:10E500000F94C2F11093C6008091C00086FFFCCF2B
:10E510008091C00080648093C0000F94DCF11F9153
:10E5200008952F923F924F925F926F927F928F92B7
:10E530009F92AF92BF92CF92DF92EF92FF920F9392
:10E540001F93DF93CF93CDB7DEB762970FB6F894E2
:10E55000DEBF0FBECDBF382E622ECA01DB015C01CB
:10E560006D01772420E2222E2E010894411C511CBB
:10E570008BC081E0A81680E0B80681E0C80680E084
:10E58000D80628F0C601AA27BB270F940DF2BB2797
:10E59000AD2D9C2D8B2D0F940DF28A2D0F940DF225
:10E5A0002092C6008091C00086FFFCCF8091C00001
:10E5B00080648093C0009DE29093C6008091C0006B
:10E5C00086FFFCCF8091C00080648093C0002092C1
:10E5D000C6008091C00086FFFCCF8091C00080649F
:10E5E0008093C00019828601750188249924A1E0D6
:10E5F0003A1651F03A1620F0B2E03B1661F409C029
:10E600000BBFF701779007C0C7010F9477FE782EF4
:10E6100002C0F7017080872D0F940DF22092C60082
:10E620008091C00086FFFCCF8091C0008064809301
:10E63000C000872D8052F401EF70F0708F3520F408
:10E64000E40DF51D708204C0E40DF51D8EE280839B
:10E650000894E11CF11C011D111D0894811C911CE2
:10E6600090E18916910409F0C2CF80E190E0A0E02A
:10E67000B0E0A80EB91ECA1EDB1E198AC2010F9493
:10E68000FAF10F94DCF16A94662009F072CF629679
:10E690000FB6F894DEBF0FBECDBFCF91DF911F91B3
:10E6A0000F91FF90EF90DF90CF90BF90AF909F9031
:10E6B0008F907F906F905F904F903F902F90089534
:10E6C0002F923F924F925F926F927F928F929F9282
:10E6D000AF92BF92CF92DF92EF92FF920F931F9370
:10E6E000DF93CF93CDB7DEB7CD53D1400FB6F894BB
:10E6F000DEBF0FBECDBF01E20EBF0FEF0DBF94B75F
:10E70000F894A89514BE80916000886180936000A1
:10E7100010926000789493FF05C0E0910002F091A0
:10E7200001021995279A2F9A8091C00082608093E8
:10E73000C00080E18093C40088E18093C1000000A4
:10E74000EE24FF24870144E0A42EB12CCC24DD2448
:10E7500024C0C5010197F1F70894E11CF11C011DCB
:10E76000111D21E2E2162EE4F20620E0020720E06D
:10E77000120718F031E0C32ED12CC801B70127ECE5
:10E780003BE140E050E00F9441FE611571058105C9
:10E79000910519F485B1805885B98091C00087FD35
:10E7A00003C0C114D104A9F2A6014F5F5F4FC25E3E
:10E7B000DE4F59834883CE51D140C25EDE4F8881FF
:10E7C0009981CE51D140019711F00D9410FEC05D9A
:10E7D000DE4F19821882C053D14060E0C15DDE4F28
:10E7E0001882CF52D14088249924C35DDE4F19820C
:10E7F0001882CD52D140C05EDE4F188219821A8233
:10E800001B82C052D140CE5CDE4F188219821A8220
:10E810001B82C253D140EE24FF2487010BBFF701B6
:10E8200007911691C45CDE4F19830883CC53D14005
:10E830000D940BFEC25EDE4F28813981CE51D1404E
:10E840002130310509F52091C600C25EDE4F1982E4
:10E850001882CE51D14022C02F5F3F4F4F4F5F4FA4
:10E86000213082E138078AE7480780E0580780F0C6
:10E87000C45CDE4FE881F981CC53D140EF5FFF4F9C
:10E8800019F0EE27FF27099420E030E040E050E047
:10E890008091C00087FFE0CF2091C600C35DDE4FAE
:10E8A00048815981CD52D1404F5F5F4FC35DDE4FEC
:10E8B00059834883CD52D140213209F063C64A3092
:10E8C000510508F05FC60894811C911C53E0851621
:10E8D000910409F059C600E010E018C081E280936D
:10E8E000C6008091C00086FFFCCF8091C00080648C
:10E8F0008093C0002F5F3F4F2931310579F70F9486
:10E90000DCF10F5F1F4F0530110519F020E030E0FA
:10E91000E5CF10920A0210920B0210920C02109294
:10E920000D02109206021092070210920802109235
:10E930000902109202021092030210920402109235
:10E9400005028FEE90EE60E00F94F5F180E191EE1C
:10E9500060E00F94C2F18091C00087FFFCCF9091DE
:10E96000C600903608F09F759032B8F09093C600BC
:10E970008091C00086FFFCCF8091C00080648093AE
:10E98000C000A0E2A093C6008091C00086FFFCCF2B
:10E990008091C00080648093C000983409F4D7C18E
:10E9A0009934B8F4923409F459C1933458F490333B
:10E9B00019F1903308F4E3C59F33A1F1903409F0C5
:10E9C000DEC5BDC0953409F470C1963409F0D7C5D1
:10E9D00098C1923509F42BC2933538F49C3409F46C
:10E9E000F5C1913509F0CBC518C2963509F445C279
:10E9F000993509F0C4C567C483E792EE62E00F94CD
:10EA0000F5F110920602109207021092080210927D
:10EA1000090210920A0210920B0210920C0210923C
:10EA20000D0213C18FE792EE62E00F94F5F18FEEC5
:10EA300090EE60E00F94F5F181E291EE60E00F94CA
:10EA4000C2F187EB91EE60E00F94F5F180E391EE77
:10EA500060E00F94C2F184EE90EE60E00F94F5F167
:10EA60008FE391EE60E00F94C2F186E090E061E008
:10EA700070E00F9434F20F94DCF18DE591EE60E0DC
:10EA80000F94C2F189EC91EE60E00F94F5F18EE401
:10EA900091EE60E00F94C2F183EC91EE60E00F9490
:10EAA000F5F18CE691EE60E00F94C2F18EE10F94E7
:10EAB0000DF288E90F940DF281E00F940DF20F949E
:10EAC000DCF18BE791EE60E00F94C2F119E0E0E039
:10EAD000F0E010935700E4918E2F0F940DF20F94F5
:10EAE000DCF18AE891EE60E00F94C2F1E3E0F0E03F
:10EAF00010935700E4918E2F0F940DF20F94DCF1D8
:10EB000089E991EE60E00F94C2F1E2E0F0E0109349
:10EB10005700E4918E2F0F940DF20F94DCF188EAE8
:10EB200091EE60E00F94C2F1E1E0F0E01093570045
:10EB30001491812F0F940DF20F94DCF107CF8BE825
:10EB400092EE62E00F94F5F18BE492EE60E00F94A8
:10EB5000F5F10F94DCF100E010E019C0C8016F2D51
:10EB60000F947FFEFF2031F489E492EE60E00F9471
:10EB7000C2F10BC0F092C6008091C00086FFFCCFAE
:10EB80008091C00080648093C0000F5F1F4FC80158
:10EB900081519F41A0E0B0E0ABBFFC01F790BAE229
:10EBA000FB1621F0E2E000301E07C1F60F94DCF105
:10EBB0000F94DCF187E592EE60E00F94F5F10F948D
:10EBC000DCF1CC24DD2400E010E01EC0C8010F946D
:10EBD00077FEF82E882331F489E492EE60E00F94FA
:10EBE000C2F10BC08093C6008091C00086FFFCCFAD
:10EBF0008091C00080648093C000FE1419F00894D6
:10EC0000C11CD11C0F5F1F4FC80181519F41A0E063
:10EC1000B0E0ABBFFC01E790FAE2EF1621F022E092
:10EC20000030120799F60F94DCF10F94DCF182E6C4
:10EC300092EE60E00F94C2F1C60161E070E00F94C3
:10EC400034F20F94DCF10F94DCF110920202109276
:10EC50000302109204021092050278CE89E992EE26
:10EC600062E00F94F5F1279A2F9A16C02F9880E052
:10EC700090E0E0EDF7E03197F1F7019684369105E9
:10EC8000C1F72F9A80E090E0E0EDF7E03197F1F7DF
:10EC9000019684369105C1F78091C00087FFE6CFC9
:10ECA0008091C00087FFFCCF64C485EA92EE62E0E9
:10ECB0000F94F5F140910202509103026091040219
:10ECC0007091050281E020E10F9491F2809102029F
:10ECD00090910302A0910402B091050280509F4FD1
:10ECE000AF4FBF4F8093020290930302A0930402A0
:10ECF000B093050280509041A040B04008F426CE69
:10ED0000A4CF83EB92EE62E00F94F5F140910602FE
:10ED100050910702609108027091090280E020E1A1
:10ED20000F9491F28091060290910702A09108023F
:10ED3000B091090280509F4FAF4FBF4F80930602A2
:10ED400090930702A0930802B0930902FFCD80ECD4
:10ED500092EE62E00F94F5F183E792EE60E00F949B
:10ED6000F5F18FE792EE60E00F94F5F18BE892EE0B
:10ED700060E00F94F5F189E992EE60E00F94F5F10F
:10ED800085EA92EE60E00F94F5F183EB92EE60E09D
:10ED90000F94F5F180EC92EE60E00F94F5F187ECC2
:10EDA00092EE60E00F94F5F188ED92EE60E00F9442
:10EDB000F5F18FED92EE60E00F94F5F18AEE92EEB0
:10EDC00060E00F94F5F183E093EEBDCD87EC92EE19
:10EDD00062E00F94F5F181E40F947BF282E40F94EA
:10EDE0007BF283E40F947BF284E40F947BF285E45E
:10EDF0000F947BF286E40F947BF287E40F947BF20E
:10EE000088E40F947BF28AE40F947BF28BE40F94F6
:10EE10007BF28CE40F947BF299CD88ED92EE62E068
:10EE20000F94F5F1772473948824992409C48FED05
:10EE300092EE62E00F94F5F140910A0250910B02BC
:10EE400060910C0270910D0282E020E10F9491F22A
:10EE500080910A0290910B02A0910C02B0910D02D8
:10EE600080509F4FAF4FBF4F80930A0290930B0289
:10EE7000A0930C02B0930D0269CD8AEE92EE62E08F
:10EE80000F94F5F184EE90EE60E00F94F5F18FECC5
:10EE900091EE60E00F94F5F1662477244301CC5D98
:10EEA000DE4F19821882C452D140D401C301B695F5
:10EEB000A79597958795CA5DDE4F88839983AA8326
:10EEC000BB83C652D140CC5DDE4FA881B981C4520C
:10EED000D1401196CC5DDE4FB983A883C452D14096
:10EEE000CD0162E070E00F9434F2B0E2B093C6005E
:10EEF0008091C00086FFFCCF8091C0008064809329
:10EF0000C000EDE2E093C6008091C00086FFFCCF18
:10EF10008091C00080648093C000F0E2F093C6004E
:10EF20008091C00086FFFCCF8091C00080648093F8
:10EF3000C000CA5DDE4FE880F9800A811B81C6529D
:10EF4000D140BB27A12F902F8F2D0F940DF2CA5DBA
:10EF5000DE4F8881C652D1400F940DF2B0E2FB2EF5
:10EF6000F092C6008091C00086FFFCCF8091C00067
:10EF700080648093C0000DE30093C6008091C000C0
:10EF800086FFFCCF8091C00080648093C00010E2B7
:10EF90001093C6008091C00086FFFCCF8091C00016
:10EFA00080648093C0008BBEF3012791C65DDE4F65
:10EFB0002883CA52D140A22EBB24CC24DD2408943D
:10EFC000611C711C811C911C8BBEF3018791282E42
:10EFD0003324442455240894611C711C811C911C09
:10EFE0008BBEF3013791C55DDE4F3883CB52D140E4
:10EFF0000894611C711C811C911C8BBEF30147910C
:10F00000C45DDE4F4883CC52D140ADEFEA2EAFEF66
:10F01000FA2EAFEF0A2FAFEF1A2F6E0C7F1C801E57
:10F02000911E142D032DF22CEE24EA0CFB1C0C1D5A
:10F030001D1D0F940DF220E22093C6008091C000A8
:10F0400086FFFCCF8091C00080648093C000C65DC5
:10F05000DE4F8881CA52D1400F940DF230E23093D6
:10F06000C6008091C00086FFFCCF8091C000806404
:10F070008093C000C45DDE4F8881CC52D1400F9494
:10F080000DF240E24093C6008091C00086FFFCCFA5
:10F090008091C00080648093C000C55DDE4F888190
:10F0A000CB52D1400F940DF250E25093C6008091A4
:10F0B000C00086FFFCCF8091C00080648093C000B8
:10F0C0008FEFE8168FEFF80680E0080780E018075A
:10F0D00031F484E092EE60E00F94C2F1DFC0D80119
:10F0E000C7018070907CA070B0708050904CA040A0
:10F0F000B040D1F52FEF3FE340E050E0E222F322B1
:10F1000004231523CA5DDE4FA880B980CA80DB8046
:10F11000C652D140AE0CBF1CC01ED11EAA0CBB1CD7
:10F12000CC1CDD1C8EE092EE60E00F94C2F1BB2798
:10F13000A12F902F8F2D0F940DF28E2D0F940DF285
:10F1400030E23093C6008091C00086FFFCCF8091F2
:10F15000C00080648093C0004EE34093C60080915D
:10F16000C00086FFFCCF87C08EE09EEFA0E0B0E03D
:10F17000E822F9220A231B239CE0E91694E9F90608
:10F1800090E0090790E0190709F088C0C45DDE4FE0
:10F19000A881CC52D140EA2EFF2400E010E0102FCD
:10F1A0000F2DFE2CEE24C55DDE4FB881CB52D14031
:10F1B000EB0EF11C011D111DD601C501817090706F
:10F1C000A070B070DC0199278827E80EF91E0A1F8D
:10F1D0001B1F20EF30E040E050E0A222B322C42207
:10F1E000D52241E1AA0CBB1CCC1CDD1C4A95D1F7F1
:10F1F000EA0CFB1C0C1D1D1D81E090E0A0E0B0E0BE
:10F20000282239224A225B2235E1220C331C441C7D
:10F21000551C3A95D1F7E20CF31C041D151D57013E
:10F220006801AA0CBB1CCC1CDD1C85E192EE60E0E1
:10F230000F94C2F1C801AA27BB270F940DF2BB2778
:10F24000A12F902F8F2D0F940DF28E2D0F940DF274
:10F2500090E29093C6008091C00086FFFCCF809121
:10F26000C00080648093C000AEE3A093C60080918C
:10F27000C00086FFFCCF8091C00080648093C000F6
:10F28000C601AA27BB270F940DF2BB27AD2D9C2DDD
:10F290008B2D0F940DF28A2D0F940DF20F94DCF14B
:10F2A000CC5DDE4FE881F981C452D140F99709F471
:10F2B0004DCBF4E0EF2EF12C012D112D6E0C7F1CA7
:10F2C000801E911EF2CD83E093EE62E00F94F5F183
:10F2D0008AE192EE60E00F94C2F18091C00087FF56
:10F2E000FCCF1091C6001F751093C6008091C0001E
:10F2F00086FFFCCF8091C00080648093C0000F9493
:10F30000DCF1812F81548A3108F036C1163409F4BA
:10F3100095C0173490F4133409F44EC0143430F40B
:10F320001134F1F0123409F01DC130C0143409F465
:10F3300059C0153409F016C16BC01A3409F4C4C0A1
:10F340001B3438F4173409F48FC0183409F00AC19B
:10F35000A1C01B3409F4D2C01C3409F003C1E8C0B9
:10F360008FEF81B90DC082B1809582B980E090E0C5
:10F37000E0EDF7E03197F1F70196883C9105C1F790
:10F380008091C00087FFEFCF12B8EFC08FEF84B934
:10F390000DC085B1809585B980E090E0E0EDF7E0A3
:10F3A0003197F1F70196883C9105C1F78091C00033
:10F3B00087FFEFCF15B8D9C08FEF87B90DC088B1DF
:10F3C000809588B980E090E0E0EDF7E03197F1F7C3
:10F3D0000196883C9105C1F78091C00087FFEFCF6F
:10F3E00018B8C3C08FEF8AB90DC08BB180958BB9A7
:10F3F00080E090E0E0EDF7E03197F1F70196883C8E
:10F400009105C1F78091C00087FFEFCF1BB8ADC059
:10F410008FEF8DB90DC08EB180958EB980E090E0F0
:10F42000E0EDF7E03197F1F70196883C9105C1F7DF
:10F430008091C00087FFEFCF1EB897C08FEF80BBD1
:10F440000DC081B3809581BB80E090E0E0EDF7E0F6
:10F450003197F1F70196883C9105C1F78091C00082
:10F4600087FFEFCF11BA81C08FEF83BB0DC084B38C
:10F47000809584BB80E090E0E0EDF7E03197F1F714
:10F480000196883C9105C1F78091C00087FFEFCFBE
:10F4900014BA6BC08FEF809301010FC080910201FD
:10F4A00080958093020180E090E0E0EDF7E03197F5
:10F4B000F1F70196883C9105C1F78091C00087FF64
:10F4C000EDCF1092020151C08FEF809304010FC065
:10F4D0008091050180958093050180E090E0E0ED4A
:10F4E000F7E03197F1F70196883C9105C1F78091DB
:10F4F000C00087FFEDCF1092050137C08FEF8093DA
:10F5000007010FC08091080180958093080180E079
:10F5100090E0E0EDF7E03197F1F70196883C910536
:10F52000C1F78091C00087FFEDCF109208011DC088
:10F530008FEF80930A010FC080910B01809580931B
:10F540000B0180E090E0E0EDF7E03197F1F70196F4
:10F55000883C9105C1F78091C00087FFEDCF1092E4
:10F560000B0103C085E292EEEEC98091C00087FFD7
:10F57000FCCF8091C600EAC988E392EEE4C98CE131
:10F5800091EEE1C988249924933011F1943028F444
:10F59000913089F09230B8F408C0953061F195301F
:10F5A000F0F0963009F048C043C02B3109F042C951
:10F5B00091E06BE13FC96227C15DDE4F2883CF52E6
:10F5C000D14092E037C9B22FA0E0622793E032C960
:10F5D000822F90E0A82BB92B622794E02BC92E3004
:10F5E00009F039C3622795E0C05DDE4F19821882A9
:10F5F000C053D1401FC9E1E0F0E0EC0FFD1FC05D3A
:10F60000DE4F08811981C053D140E00FF11F2083E4
:10F610000F5F1F4FC05DDE4F19830883C053D14079
:10F6200062270A171B0709F005C9D80196E002C92D
:10F63000261709F010C303C0973009F0FBC87724E0
:10F640009981933109F412C19431C8F4963009F4C8
:10F65000D8C0973050F4923009F406C1933009F4C1
:10F660006DC0913009F059C253C0913109F477C08F
:10F67000923108F0BBC0903109F04FC2F5C098310B
:10F6800009F487C0993150F4953109F4EFC09531F0
:10F6900008F4C6C1963109F040C2C2C19A3109F4DA
:10F6A0006CC09A3108F491C09B3109F45BC09D3164
:10F6B00009F033C29D81903359F48F81882311F46E
:10F6C0009EE11CC0813011F091E018C098E916C08D
:10F6D000892F807591F0903539F4E0E0F0E089E011
:10F6E0008093570094910AC0983539F4E3E0F0E034
:10F6F00089E080935700949101C090E01A821B82A8
:10F700008D818C831D829E831F8227E030E009C299
:10F710001A8288E08B8381E48C8386E58D8382E581
:10F720008E8389E48F8383E5888780E589878FE5E9
:10F730008A8782E38B872BE030E0F3C18A818139AD
:10F7400041F0823941F0803911F48FE005C080E04A
:10F7500003C082E001C08AE01A828B8344C0772410
:10F76000739482C08D81882311F48EE12CC0813086
:10F7700011F081E028C088E926C01A82E1E0F0E0BB
:10F7800089E08093570084918B831C8224E030E0D1
:10F79000C8C18B81803589F48C81883039F4E2E0EE
:10F7A000F0E089E08093570084910DC0E0E0F0E044
:10F7B00089E080935700849106C0E3E0F0E089E09F
:10F7C0008093570084911A82DFCF8D81836C99E0FA
:10F7D000E1E0F0E0082E90935700E89507B600FCB2
:10F7E000FDCF1A821B8223E030E09BC180EC8A832C
:10F7F000CE5CDE4F188219821A821B82C253D1401E
:10F800008EC18A8190E0A0E0B0E0582F44273327D2
:10F8100022278B8190E0A0E0B0E0DC0199278827C7
:10F82000282B392B4A2B5B2B8D8190E0A0E0B0E098
:10F83000282B392B4A2B5B2B8C8190E0A0E0B0E089
:10F84000BA2FA92F982F8827282B392B4A2B5B2BCF
:10F85000220F331F441F551FC05EDE4F288339839C
:10F860004A835B83C052D1401A8259C13A81C95C34
:10F87000DE4F3883C753D140CA5CDE4F1882C6536F
:10F88000D1408B81C82EDD24CA5CDE4F488159816E
:10F89000C653D140C42AD52A933109F082C0CE5C28
:10F8A000DE4F88819981AA81BB81C253D1408050AB
:10F8B000904CA340B04030F583E0CE5CDE4FE88052
:10F8C000F9800A811B81C253D140F70100935B008C
:10F8D00080935700E89507B600FCFDCFCE5CDE4F65
:10F8E000088119812A813B81C253D14000501F4FAA
:10F8F0002F4F3F4FCE5CDE4F088319832A833B8313
:10F90000C253D140C05EDE4F488159816A817B81FC
:10F91000C052D140DE011B9631E08C9111962C91A2
:10F9200011971296C75CDE4F2883C953D140C85C3B
:10F93000DE4F1882C853D14090E0C85CDE4FE881AA
:10F94000F981C853D1408E2B9F2B0C01FA01609393
:10F950005B0030935700E89511244E5F5F4F6F4F67
:10F960007F4F0EEFE02E0FEFF02ECE0CDF1CC114F8
:10F97000D10499F685E0C05EDE4F088119812A81A5
:10F980003B81C052D140F80120935B008093570027
:10F99000E89507B600FCFDCF81E180935700E8951C
:10F9A00035C0C05EDE4F88819981AA81BB81C0527B
:10F9B000D140B695A795979587957C018601ABE0D8
:10F9C000AA2EB12CAC0EBD1E0BC0D5016D915D01F0
:10F9D000C7010F947FFE0894E11CF11C01501040F8
:10F9E0000115110591F7A60160E070E0440F551F65
:10F9F000661F771FC05EDE4FE880F9800A811B8199
:10FA0000C052D1404E0D5F1D601F711F1A82C05E33
:10FA1000DE4F488359836A837B83C052D1407FC0C5
:10FA2000FA80C55CDE4FF882CB53D140C65CDE4F16
:10FA30001882CA53D1408B81C82EDD24C65CDE4FAC
:10FA400008811981CA53D140C02AD12A1A828981DA
:10FA5000BE016D5F7F4F843121F59601C05EDE4FA0
:10FA6000E880F9800A811B81C052D1400BBFF701A9
:10FA700087919691DB018C9311969C936E5F7F4FDB
:10FA8000D801C7010296A11DB11DC05EDE4F88835B
:10FA90009983AA83BB83C052D14022503040F1F6F3
:10FAA00036C0C05EDE4F288139814A815B81C052F9
:10FAB000D1400894C108D108760100E010E0089414
:10FAC000C11CD11C0894E11CF11C011D111DE20E8A
:10FAD000F31E041F151F21BDBB27A52F942F832FB5
:10FAE00082BD2F5F3F4F4F4F5F4FF89A80B5DB01CC
:10FAF0008D93BD012E153F054007510761F7C05E8C
:10FB0000DE4F288339834A835B83C052D1409601FC
:10FB10002D5F3F4FFB01108204C080EC8A8322E0FE
:10FB200030E08BE18093C6008091C00086FFFCCF5F
:10FB30008091C00080648093C000C15DDE4FF88179
:10FB4000CF52D140F093C6008091C00086FFFCCF19
:10FB50008091C00080648093C000432F3093C60022
:10FB60008091C00086FFFCCF8091C00080648093AC
:10FB7000C000922F2093C6008091C00086FFFCCF6A
:10FB80008091C00080648093C0008EE08093C600A6
:10FB90008091C00086FFFCCF8091C000806480937C
:10FBA000C00065E1C15DDE4FE880CF52D1406E25D7
:10FBB00069276427FE01319610C090819093C6009A
:10FBC0008091C00086FFFCCF31968091C000806498
:10FBD0008093C0006927215030402115310569F715
:10FBE0006093C6008091C00086FFFCCF8091C0006A
:10FBF00080648093C00085B1805885B9772081F4F6
:10FC0000C15DDE4F0881CF52D1400F5FC15DDE4F35
:10FC10000883CF52D14090E0A0E0B0E00D941AF4F8
:10FC200027982F9880E090E020ED37E0F901319798
:10FC3000F1F7019684369105C9F700008091C00064
:10FC40008D7F8093C00081E180935700E895EE2777
:10FC5000FF270994FFCF90E00D941AF497FB092E2B
:10FC600007260AD077FD04D02ED006D000201AF443
:10FC7000709561957F4F0895F6F7909581959F4F08
:10FC80000895A1E21A2EAA1BBB1BFD010DC0AA1FDD
:10FC9000BB1FEE1FFF1FA217B307E407F50720F0F5
:10FCA000A21BB30BE40BF50B661F771F881F991F70
:10FCB0001A9469F760957095809590959B01AC01B9
:10FCC000BD01CF010895AA1BBB1B51E107C0AA1FAC
:10FCD000BB1FA617B70710F0A61BB70B881F991FED
:10FCE0005A95A9F780959095BC01CD010895F99991
:10FCF000FECF92BD81BDF89A992780B50895262F31
:10FD0000F999FECF1FBA92BD81BD20BD0FB6F89400
:0EFD1000FA9AF99A0FBE01960895F894FFCF63
:040000033000E000E9
:00000001FF